:020000040800F2
:10000000008001203D300008B10E0008B30E00084A
:10001000B50E0008B70E0008B90E00080000000079
:10002000000000000000000000000000BB0E0008FF
:10003000BD0E000800000000BF0E0008C10E000841
:100040008D3000088D3000088D3000088D3000089C
:100050008D3000088D3000088D3000088D3000088C
:100060008D3000088D3000088D3000088D3000087C
:100070008D3000088D3000088D3000088D3000086C
:100080008D3000088D3000088D300008C90E000842
:100090008D300008D90E00088D3000088D30000822
:1000A0008D3000088D3000088D3000088D3000083C
:1000B0008D3000088D3000088D3000088D3000082C
:1000C0008D3000088D3000088D3000088D3000081C
:1000D0008D3000088D3000088D3000088D3000080C
:1000E0008D3000088D3000088D3000088D300008FC
:1000F0008D3000088D3000088D3000088D300008EC
:100100008D3000088D3000088D3000088D300008DB
:100110008D3000088D3000088D3000088D300008CB
:100120008D3000088D3000088D3000088D300008BB
:100130008D3000088D3000088D3000088D300008AB
:100140008D3000088D3000088D3000088D3000089B
:100150008D3000088D3000088D3000088D3000088B
:100160008D3000088D3000088D3000088D3000087B
:100170008D3000088D3000088D3000080000000030
:080180008D3000088D300008ED
:1001880010B5054C237833B9044B13B10448AFF3C9
:1001980000800123237010BD100000200000000023
:1001A800E830000808B5034B1BB103490348AFF317
:1001B800008008BD0000000014000020E83000089E
:1001C80053B94AB9002908BF00281CBF4FF0FF31B6
:1001D8004FF0FF3000F072B9ADF1080C6DE904CEB4
:1001E80000F006F8DDF804E0DDE9022304B070470A
:1001F8002DE9F047089E04468846002B4BD18A42D9
:10020800154667D9B2FA82F24AB1C2F1200701FA5B
:1002180002F320FA07F7954047EA030894404FEAAB
:10022800154E230CB8FBFEF71FFA85FC0EFB17884A
:1002380043EA084307FB0CF1994209D9EB1807F187
:10024800FF3080F01B81994240F21881023F2B4415
:100258005B1AA4B2B3FBFEF00EFB103344EA03446E
:1002680000FB0CFCA44509D92C1900F1FF3380F0E0
:100278000781A44540F2048102382C4440EA074033
:10028800A4EB0C0400271EB1D4400023C6E90043A8
:100298003946BDE8F0878B4209D9002E00F0EB8083
:1002A8000027C6E9000138463946BDE8F087B3FAA9
:1002B80083F7002F47D18B4202D3824200F2FA80A3
:1002C800841A61EB030301209846002EE0D0C6E9AA
:1002D8000048DDE702B9FFDEB2FA82F2002A40F0F8
:1002E8008F80491B4FEA154E1FFA85F80127B1FB8D
:1002F800FEFC230C0EFB1C1143EA014308FB0CF126
:10030800994207D9EB180CF1FF3002D2994200F25A
:10031800CD808446591AA3B2B1FBFEF00EFB10142F
:1003280043EA044408FB00F8A04507D92C1900F15A
:10033800FF3302D2A04500F2B6801846A4EB0804A9
:1003480040EA0C409FE7C7F1200CBB4022FA0CFEA4
:100358004EEA030E01FA07F420FA0CF521FA0CF321
:100368004FEA1E482543B3FBF8F92C0C08FB193358
:100378001FFA8EFA44EA034309FB0AF49C4202FA84
:1003880007F200FA07F10BD91EEB030309F1FF305E
:1003980080F087809C4240F28480A9F1020973446E
:1003A8001B1BADB2B3FBF8F008FB103345EA03445E
:1003B80000FB0AFAA24508D91EEB040400F1FF333A
:1003C8006BD2A24569D90238744440EA0940A0FBBF
:1003D8000289A4EB0A044C45C2464B4654D351D07B
:1003E800002E69D0B1EB0A0564EB030404FA0CFC97
:1003F800FD40FC404CEA0505C6E90054002747E7E4
:10040800C2F1200320FA03F7954001FA02F021FA1D
:1004180003F34FEA154E3843010CB3FBFEF71FFAFE
:1004280085F80EFB173341EA034107FB08F38B42BB
:1004380004FA02F407D9691807F1FF3C2FD28B425E
:100448002DD9023F2944CB1A81B2B3FBFEF00EFB33
:10045800103341EA034100FB08F38B4207D96918BE
:1004680000F1FF3C17D28B4215D902382944C91A2A
:1004780040EA07473BE73746304609E70746E7E6DD
:100488001846FBE64145ABD2B8EB020A69EB0E020F
:1004980001381346A4E76046E9E7184695E767463A
:1004A800D1E781467CE702382C4447E7ACF1020CDF
:1004B8002B442FE7384608E73746E9E6704700BF80
:1004C80008B5002220214FF0904001F067FA002281
:1004D80040214FF0904001F061FA002280214FF056
:1004E800904001F05BFA184C00221021204601F0E0
:1004F80055FA00222021204601F050FAA4F5806424
:1005080000220121204601F049FA0022022120465A
:1005180001F044FA00220421204601F03FFA0022AB
:100528004FF48061204601F039FA00224FF400614F
:10053800204601F033FA0A2000F024FD00F036F8D6
:1005480000F000FBFCE700BF0008004810B5074CAE
:10055800074B2246012100F0E9FE2369082B00D051
:1005680010BD044B01221A70FAE700BF5C0000209E
:100578003C0000202C00002000B58BB0012308931C
:100588000522059204934FF408610091002201921C
:1005980002910392069207936946034800F0ACFD66
:1005A8000BB05DF804FB00BFFC00002010B5FFF79E
:1005B800E3FF084C204600F01DFE1021204600F005
:1005C8004FFF054B08221A6100229A60DA60552213
:1005D8001A6010BDFC0000204400002010B5394B03
:1005E8001B78D3B1012B2DD0022B40D0032B53D035
:1005F800354C00220221204601F0D0F90A2000F0F3
:10060800C1FC00220421204601F0C8F90A2000F0AC
:10061800B9FC2E4B00221A7010BD2B4C002202216F
:10062800204601F0BBF90A2000F0ACFC00220421AE
:10063800204601F0B3F90A2000F0A4FC234B002265
:100648001A70E9E7204C01220221204601F0A6F9A0
:100658000A2000F097FC00220421204601F09EF9B0
:100668000A2000F08FFC194B01221A70D4E7164CAF
:1006780000220221204601F091F90A2000F082FCB4
:1006880001220421204601F089F90A2000F07AFCB1
:100698000E4B02221A70BFE70B4C012202212046A2
:1006A80001F07CF90A2000F06DFC012204212046AB
:1006B80001F074F90A2000F065FC044B03221A705B
:1006C800AAE700BF3C0000200004004830000020DA
:1006D80010B53E4B5B78E3B1012B31D0022B46D0ED
:1006E800032B5BD03A4C00224FF48061204601F086
:1006F80055F90A2000F046FC00224FF4006120461C
:1007080001F04CF90A2000F03DFC324B00225A70EF
:1007180010BD2F4C00224FF48061204601F03EF9B5
:100728000A2000F02FFC00224FF40061204601F05F
:1007380035F90A2000F026FC264B00225A70E7E71C
:10074800234C01224FF48061204601F027F90A204A
:1007580000F018FC00224FF40061204601F01EF959
:100768000A2000F00FFC1B4B01225A70D0E7184CEE
:1007780000224FF48061204601F010F90A2000F0B1
:1007880001FC01224FF40061204601F007F90A201C
:1007980000F0F8FB0F4B02225A70B9E70C4C01220B
:1007A8004FF48061204601F0F9F80A2000F0EAFBD6
:1007B80001224FF40061204601F0F0F80A2000F011
:1007C800E1FB044B03225A70A2E700BF3C00002063
:1007D800000400483000002010B53E4B9B78E3B180
:1007E800012B31D0022B46D0032B5BD03A4C002290
:1007F8004FF48051204601F0D1F80A2000F0C2FBE6
:1008080000224FF40051204601F0C8F80A2000F0F9
:10081800B9FB324B00229A7010BD2F4C00224FF4C6
:100828008051204601F0BAF80A2000F0ABFB002204
:100838004FF40051204601F0B1F80A2000F0A2FB65
:10084800264B00229A70E7E7234C01224FF480518F
:10085800204601F0A3F80A2000F094FB00224FF490
:100868000051204601F09AF80A2000F08BFB1B4B40
:1008780001229A70D0E7184C00224FF4805120468C
:1008880001F08CF80A2000F07DFB01224FF40051A2
:10089800204601F083F80A2000F074FB0F4B022277
:1008A8009A70B9E70C4C01224FF48051204601F0B0
:1008B80075F80A2000F066FB01224FF4005120462B
:1008C80001F06CF80A2000F05DFB044B03229A70DB
:1008D800A2E700BF3C0000200004004830000020D0
:1008E80010B53E4BDB78E3B1012B31D0022B46D05B
:1008F800032B5BD03A4C00224FF48041204601F094
:100908004DF80A2000F03EFB00224FF4004120463B
:1009180001F044F80A2000F035FB324B0022DA706F
:1009280010BD2F4C00224FF48041204601F036F8CC
:100938000A2000F027FB00224FF40041204601F076
:100948002DF80A2000F01EFB264B0022DA70E7E79C
:10095800234C01224FF48041204601F01FF80A2061
:1009680000F010FB00224FF40041204601F016F879
:100978000A2000F007FB1B4B0122DA70D0E7184C65
:1009880000224FF48041204601F008F80A2000F0C8
:10099800F9FA01224FF40041204600F0FFFF0A2037
:1009A80000F0F0FA0F4B0222DA70B9E70C4C012282
:1009B8004FF48041204600F0F1FF0A2000F0E2FAEF
:1009C80001224FF40041204600F0E8FF0A2000F021
:1009D800D9FA044B0322DA70A2E700BF3C000020DA
:1009E800000400483000002010B5394B1B79D3B102
:1009F800012B2DD0022B40D0032B53D0354C002295
:100A08004021204600F0CAFF0A2000F0BBFA00226D
:100A18008021204600F0C2FF0A2000F0B3FA2E4BD6
:100A280000221A7110BD2B4C00224021204600F0F4
:100A3800B5FF0A2000F0A6FA00228021204600F027
:100A4800ADFF0A2000F09EFA234B00221A71E9E755
:100A5800204C01224021204600F0A0FF0A2000F08F
:100A680091FA00228021204600F098FF0A2000F029
:100A780089FA194B01221A71D4E7164C0022402139
:100A8800204600F08BFF0A2000F07CFA012280212A
:100A9800204600F083FF0A2000F074FA0E4B022271
:100AA8001A71BFE70B4C01224021204600F076FF67
:100AB8000A2000F067FA01228021204600F06EFF2C
:100AC8000A2000F05FFA044B03221A71AAE700BF5C
:100AD8003C000020000800483000002008B5164BF4
:100AE8005B7973B1012B19D000224FF48071134840
:100AF80000F054FF0A2000F045FA114B00225A7109
:100B080008BD00224FF480710C4800F047FF0A200E
:100B180000F038FA0A4B00225A71F1E701224FF42B
:100B28008071064800F03AFF0A2000F02BFA044BC7
:100B380001225A71E4E700BF3C0000200008004889
:100B48003000002008B5104B1B781BB90E4B002253
:100B58001A7008BDFFF742FDFFF7BAFDFFF73CFE2C
:100B6800FFF7BEFEFFF740FFFFF7B8FF2021074859
:100B780000F019FF642000F005FA054B054A064904
:100B8800064800F065FBE1E72C000020000800485B
:100B9800380000203000002044000020FC00002025
:100BA800F0B589B00024039404940594069407943E
:100BB800274BDA6C42F00102DA64DA6C02F00102C7
:100BC8000092009ADA6C42F00402DA64DA6C02F0FD
:100BD80004020192019ADA6C42F00202DA64DB6CD8
:100BE80003F002030293029B2246E0214FF090405B
:100BF80000F0D4FE174F22463021384600F0CEFED2
:100C0800154E224640F60741304600F0C7FEE02365
:100C18000393012504950594069403A94FF0904089
:100C280000F0D2FD3023039304950594069403A99C
:100C3800384600F0C9FD40F6074303930495059430
:100C4800069403A9304600F0BFFD09B0F0BD00BF0F
:100C580000100240000800480004004872B6FEE791
:100C680008B50D480D4B03600A23436000238360D9
:100C7800C3604FF4402202614FF480124261037650
:100C880043768376C3760377437700F08FF900B90C
:100C980008BDFFF7E3FF00BFFC0000200064004030
:100CA80008B50B480B4B03604FF4E1334360002356
:100CB8008360C36003610C2242618361C361036284
:100CC800436202F085F900B908BDFFF7C7FF00BF0E
:100CD800780000200044004000B5B9B0242200216B
:100CE80028A802F0F5F90021229123912491259159
:100CF80026918822684602F0EBF9102327930122F7
:100D08002D9260232F93022331933292339228221B
:100D18003492072235923693379327A800F03EFF86
:100D2800E0B90F23229303232393002324932593CD
:100D38002693042122A801F043FA88B902230093DC
:100D480000230F93684601F087FC58B94FF40070F0
:100D580000F03AFE40B939B05DF804FBFFF77EFFBA
:100D6800FFF77CFFFFF77AFFFFF778FF08B500F081
:100D7800E7F8FFF7B1FFFFF713FFFFF771FFFFF782
:100D88008FFFFFF79DFBFEE782B00A4B1A6E42F019
:100D980001021A661A6E02F001020092009A9A6D18
:100DA80042F080529A659B6D03F080530193019B3A
:100DB80002B070470010024000B589B000230393C9
:100DC800049305930693079302681C4B9A4202D03A
:100DD80009B05DF804FB03F5D6339A6D42F0007252
:100DE8009A659A6D02F000720192019ADA6C42F0EB
:100DF8000102DA64DB6C03F001030293029B4FF4F7
:100E0800C0530393022304930323069309230793F0
:100E180003A94FF0904000F0D7FC002211461320A0
:100E280000F07AFC132000F0ABFC002211461520DC
:100E380000F072FC152000F0A3FCC9E70064004034
:100E480000B589B000230393049305930693079391
:100E58000268144B9A4202D009B05DF804FB03F50E
:100E6800E6339A6D42F400329A659A6D02F40032C4
:100E78000192019ADA6C42F00102DA64DB6C03F049
:100E880001030293029B0C2303930223049303237D
:100E980006930723079303A94FF0904000F094FCB2
:100EA800DAE700BF00440040FEE7FEE7FEE7FEE7A2
:100EB800FEE770477047704708B500F051F808BD65
:100EC80008B5024800F0EAFA08BD00BFFC0000209F
:100ED80008B5024800F0E2FA08BD00BFFC00002097
:100EE800034AD2F8883043F47003C2F88830704758
:100EF80000ED00E0104B1B780BB90120704710B5CE
:100F080004464FF47A70B0FBF3F30C4A1068B0FB58
:100F1800F3F000F043FC68B90F2C01D901200AE076
:100F2800002221464FF0FF3000F0F6FB024B5C60D8
:100F3800002000E0012010BD040000200000002077
:100F480010B5032000F0D6FB0020FFF7D3FF10B147
:100F58000124204610BD0446FFF716FFF9E70000FC
:100F6800034B1B78034A11680B441360704700BF9A
:100F78000400002024010020014B1868704700BFBE
:100F88002401002038B50446FFF7F6FF0546B4F102
:100F9800FF3F02D0044B1B781C44FFF7EDFF401BBA
:100FA800A042FAD338BD00BF04000020002800F09A
:100FB800A18038B5044690F82030D3B12268136870
:100FC80043F001031360FFF7D7FF054623685A680B
:100FD80012F0010F10D1FFF7CFFF401B0A28F5D9F7
:100FE800636A43F400336362052384F820300120E8
:100FF80038BDFFF7E1FEE1E71A6822F002021A6045
:10100800FFF7BAFF054623685A6812F0020F0DD0A1
:10101800FFF7B2FF401B0A28F5D9636A43F400338F
:101028006362052384F820300120E1E7227E012A4B
:101038003DD01A6822F080021A60637E012B3BD0F3
:101048002268136823F040031360A37E012B39D074
:101058002268136823F020031360E37E012B37D046
:101068002268136843F010031360237F012B35D0E7
:101078002268136823F008031360637F012B33D0C1
:101088002268136823F004031360A368E26813431B
:1010980022691343626913436268013A2168134362
:1010A800CB6100206062012384F82030A0E71A6831
:1010B80042F080021A60C0E72268136843F04003D8
:1010C8001360C2E72268136843F020031360C4E783
:1010D8002268136823F010031360C6E722681368B8
:1010E80043F008031360C8E72268136843F0040359
:1010F8001360CAE701207047036890F82020013A7E
:10110800D2B2012A05D9436A43F4802343620120FD
:10111800704770B4D3F8002242F00102C3F80022ED
:101128004A6902F01F02012000FA02F2D3F81C42B9
:10113800D0430440C3F81C42CC69ACB9D3F80C4284
:101148000440C3F80C42CE688D884C6945EA0645D0
:10115800483443F834508E680D884C6945EA064592
:10116800483403EBC4046560CC69012C19D08C6940
:1011780074BBD3F804420440C3F804420C696CBB46
:10118800D3F814422040C3F81402096A01292BD06D
:10119800D3F8002222F00102C3F80022002070BC1C
:1011A8007047D3F80C421443C3F80C420E688D887C
:1011B8004C6945EA0645483443F834508E688D89B1
:1011C8004C6945EA0645483403EBC4046560CEE73C
:1011D800D3F804421443C3F80442CFE7D3F8140207
:1011E8001043C3F81402D0E7D3F81C120A43C3F81B
:1011F8001C22CDE738B590F82030DBB2012B05D0A2
:10120800436A43F400234362012038BD04460223A5
:1012180080F820300268136823F001031360FFF799
:10122800ABFE054623685B6813F0010F0DD0FFF78E
:10123800A3FE401B0A28F5D9636A43F400336362AE
:10124800052384F820300120DFE700206062DCE716
:1012580070B490F820400568AD68013CE4B2012CF8
:1012680006D9436A43F480234362012070BC704767
:1012780015F0E05F54D0C5F301650124AC401C6053
:101288008B68002B39D10E68CB68046843EA465650
:1012980005F118031B01E65003680C6905F11806EF
:1012A80003EB06135C600B7D012B31D0D379917968
:1012B800090441EA0361537941EA03211379046877
:1012C80019432E013444C4F88C11D3789178090459
:1012D80041EA0361537841EA0321127803680A431B
:1012E8003344C3F88821016805F118031B01CA5863
:1012F80042F00102CA500020B8E74C6843EAC40330
:10130800CC680668234305F1180424013351C3E768
:10131800036803EB0613596841F480715960C5E707
:10132800436A43F40013436201209FE730B490F806
:101338002040013CE4B2012C06D9436A43F48023DF
:101348004362012030BC704700296FD10468E4680B
:1013580014F0030F64D0056801F11B0424012C5913
:1013680004F004049460002C6BD1056801F11B049F
:1013780024012C59640D1460056801F11B04240133
:101388002D5905F00205D560056825446D6805F0FE
:101398000F051561056825446D68C5F30725956136
:1013A80005682C446468240C546104680A011444D8
:1013B800D4F8B8411C7004681444D4F8B841C4F394
:1013C80007245C7004681444D4F8B841C4F3074493
:1013D8009C7004681444D4F8B841240EDC70046886
:1013E8001444D4F8BC411C7104681444D4F8BC41BA
:1013F800C4F307245C7104681444D4F8BC41C4F3F2
:1014080007449C7104682244D2F8BC21120EDA7198
:10141800F9B90268D36843F02003D360002091E74C
:10142800436A43F40013436201208BE7046824698C
:1014380014F0030F8FD1436A43F400134362012071
:1014480080E7056801F11B0424012C59E408546065
:1014580092E70268136943F020031361002071E7E3
:1014680090F82030013BDBB2012B05D9436A43F4E5
:101478008023436201207047026853691943516110
:101488000020704770477047704770477047704733
:101498007047704770477047704770472DE9F84F9D
:1014A800054603685C695F689E68D3F80C90D3F8BA
:1014B8001080D3F818A014F0010F5AD016F0010FBD
:1014C80017D001229A6016F0020F08D116F0040F07
:1014D80030D116F0080F07D04FF4805B0BE0FFF710
:1014E800D1FF4FF0000B06E0FFF7CFFF4FF0000BE6
:1014F80001E04FF0000B16F4807F0BD02B684FF4FF
:1015080080729A6016F4007F17D116F4806F18D095
:101518004BF4005B16F4803F2DD02B684FF48032DB
:101528009A6016F4003F16D116F4802F17D04BF4AA
:10153800004B20E04FF4006BDDE72846FFF7A3FFE0
:10154800E8E716F4006F02D04BF4804BE2E7284638
:10155800FFF79CFFDEE72846FFF796FF0BE016F43F
:10156800002F02D04BF4803B05E02846FFF78FFFA1
:1015780001E04FF0000B14F0080F07D019F0100F1E
:1015880004D04BF4007B2B681022DA6014F0040FAF
:1015980002D019F0080F60D114F0020F04D02B68A4
:1015A800DB6813F0030F5FD114F0400F07D018F079
:1015B800100F04D04BF4806B2B6810221A6114F0C2
:1015C800200F02D018F0080F52D114F0100F04D0D9
:1015D8002B681B6913F0030F51D114F4003F02D09C
:1015E80017F0100F4FD114F4803F02D017F0080FF6
:1015F80050D114F4004F67D017F0040F61D014F4E1
:10160800807F04D01AF0010F01D04BF0010B14F4C5
:10161800007F04D01AF0020F01D04BF0020B14F433
:10162800806F04D01AF0040F01D04BF0040B14F4AF
:10163800006F46D01AF0700A43D0BAF1300F48D084
:101648002FD9BAF1500F47D0BAF1600F47D0BAF18D
:10165800400F31D14BF0400B2EE02B680822DA60A6
:101668002846FFF716FF97E72846FFF711FF9BE785
:101678002B6808221A612846FFF70CFFA5E72846C1
:10168800FEF764FFA9E72B6810225A602846FFF787
:1016980002FFA8E72B6808225A602846FFF7FCFEDD
:1016A800A7E7BAF1100F05D0BAF1200F04D14BF01B
:1016B800100B01E04BF0080B2A68936923F07003C4
:1016C80093612B6804225A60BBF1000F0AD1BDE870
:1016D800F88F4BF0200BEFE74BF0800BECE74BF467
:1016E800807BE9E76B6A43EA0B036B622846FFF7E6
:1016F800D4FEECE7074AD36823F4E0631B041B0C11
:10170800000200F4E060184340F0BF6040F400308D
:10171800D060704700ED00E030B4174BDB68C3F3CE
:101728000223C3F10704042C28BF04241D1D062D21
:1017380018D9033B4FF0FF3505FA04F421EA0401F8
:10174800994005FA03F322EA0303194300280BDB47
:101758000901C9B200F1604000F5614080F800134A
:1017680030BC70470023E5E700F00F000901C9B25B
:10177800024B1954F4E700BF00ED00E014ED00E05F
:10178800002807DB00F01F02400901239340024AAA
:1017980042F82030704700BF00E100E00138B0F1A6
:1017A800807F0AD2064B5860064AF02182F823103F
:1017B8000020986007221A6070470120704700BF18
:1017C80010E000E000ED00E0F0B482B0002364E037
:1017D80086685F000325BD4026EA0506CD68BD4042
:1017E80035438560466826EA04064D68C5F300154A
:1017F8009D40354345605EE0C66A26EA0406C5F3A7
:10180800C0049C403443C4625AE0DD08083550F8EF
:10181800257003F00704A6000F24B44027EA040744
:101828000C69B4403C4340F825405DE0062400E0E4
:101838000024B4403C430235544E46F82540544CED
:10184800A568D44304EA05064F6817F4801F01D041
:1018580042EA05064E4DAE60ED6804EA05064F689B
:1018680017F4001F01D042EA0506494DEE606D6885
:1018780004EA05064F6817F4003F01D042EA05065E
:10188800434D6E602D682C404E6816F4803F01D0A1
:1018980042EA05043E4A146001330A6832FA03F446
:1018A80070D001249C402240F6D04D6805F0030515
:1018B800013D012D8CD94D6805F00306032E9BD000
:1018C8004C6804F00304032C09D0C5685E000324A7
:1018D800B44025EA04058C68B4402C43C4604C68C5
:1018E80004F00304022C90D005685E000324B44081
:1018F80025EA04054C6804F00304B4402C43046052
:101908004C6814F4403FC7D0224C256E45F00105C1
:101918002566246E04F001040194019C9D08AE1C08
:101928001A4C54F8267003F00304A6000F24B440A0
:1019380027EA0407B0F1904F3FF47AAF164CA04263
:1019480016D004F58064A04214D004F58064A04247
:1019580012D004F58064A04210D004F58064A0423F
:101968000ED004F58064A0423FF460AF072460E71E
:1019780001245EE702245CE703245AE7042458E7BD
:10198800052456E702B0F0BC704700BF00000140D4
:101998000004014000100240000400480AB98162B6
:1019A800704781617047436901EA030221EA030134
:1019B80041EA024181617047024B186800F4C06037
:1019C800704700BF00700040B0F5007F0FD01F4B7C
:1019D8001B6803F4C063B3F5806F34D01B4A1368E7
:1019E80023F4C06343F48063136000207047174BEF
:1019F8001B6803F4C063B3F5007F22D0134A136851
:101A080023F4C06343F400731360114B1A68322344
:101A180003FB02F30F4AA2FB03239B0C013300E0F4
:101A2800013B0A4A526912F4806F01D0002BF7D1AA
:101A3800064B5B6913F4806F01D1002070470320C7
:101A48007047002070470020704700BF00700040BA
:101A58000000002083DE1B4330B583B00546204BD1
:101A68009B6D13F0805F0BD0FFF7A6FFB0F5007FEA
:101A780017D0802D1FD82DD0702D2DD000211BE020
:101A8800174CA36D43F08053A365A36D03F08053F7
:101A98000193019BFFF790FFA36D23F08053A3658B
:101AA800E4E7802D03D9A02D03D9022104E0002109
:101AB80002E0012100E003210A4A136823F007032A
:101AC8000B431360136803F007038B4206D0012011
:101AD80003B030BD0221EFE70121EDE70020F7E771
:101AE8000010024000200240284A9368D26802F0A1
:101AF800030213F00C030AD00C2B06D0042B1FD0C2
:101B0800082B20D00020024610E0012AF6D11F4AF7
:101B1800126812F0080F0CD11C4AD2F89420C2F3B4
:101B280003221B4951F8222043B100200C2B0DD071
:101B38007047164A1268C2F30312F2E71046F5E737
:101B480014480022F2E714480022EFE70F4BDB6845
:101B580003F00303022B15D0032B15D00B4BD868C9
:101B6800C0F302100130D968C1F3062102FB01F26B
:101B7800B2FBF0F2D868C0F3416001304000B2FB1C
:101B8800F0F0D5E7034AE9E7034AE7E70010024027
:101B9800003100080024F40000127A00002800F048
:101BA800F482F0B583B00446AF4B9D6805F00C0590
:101BB800DE6806F00306036813F0100F5BD0E5B18A
:101BC8000C2D18D0A369002B00F0BC80A64A13681E
:101BD80043F001031360FFF7CFF90746A24B1B68D8
:101BE80013F0020F40F09B80FFF7C6F9C01B0228D4
:101BF800F4D90323D5E2012EE4D19B4B1B6813F0E3
:101C0800020F03D0A369002B00F0C282206A964B12
:101C18001B6813F0080F5CD0934B1B6803F0F003AC
:101C280098425DD8904B1A6842F008021A601A6808
:101C380022F0F002216A0A431A605A6822F47F42AD
:101C4800E16942EA01225A60002D61D0FFF74CFF9A
:101C5800854B9B68C3F30313844AD35C03F01F03CB
:101C6800D840834B1860834B1868FFF743F9034645
:101C7800002840F09682236813F0010F00F081805D
:101C8800082D75D00C2D71D06368B3F5803F00F036
:101C98009780B3F5A02F00F09980734B1A6822F44F
:101CA80080321A601A6822F480221A606368002B56
:101CB80000F09980FFF760F907466B4B1B6813F437
:101CC800003F5ED1FFF758F9C01B6428F5D90323FC
:101CD80067E2654BD3F894301B0903F0F0039FE7E4
:101CE800FFF7BAFE002840F055825F4B1A6842F0B1
:101CF80008021A601A6822F0F002216A0A431A6080
:101D08005A6822F47F42E16942EA01225A609DE75B
:101D1800206AFFF7A1FE002898D0012341E2524B28
:101D28001A6842F008021A601A6822F0F002216A62
:101D38000A431A605A6822F47F42E16942EA0122A2
:101D48005A6098E7484A136823F001031360FFF7C5
:101D580013F90746444B1B6813F0020F8BD0FFF7AB
:101D68000BF9C01B0228F5D903231AE2032E8BD1E5
:101D78003D4B1B6813F4003F03D06368002B00F051
:101D88000B82236813F0020F4FD0042D3CD00C2D8A
:101D980038D0E368002B78D0334A136843F4807353
:101DA8001360FFF7E9F806462F4B1B6813F4806FA2
:101DB80062D1FFF7E1F8801B0228F5D90323F0E18F
:101DC800294A136843F4803313606FE703F18043B3
:101DD800A3F53C331A6842F480221A601A6842F468
:101DE80080321A6062E7FFF7C7F807461E4B1B6888
:101DF80013F4003FC5D0FFF7BFF8C01B6428F5D91E
:101E08000323CEE1022EC4D1174B1B6813F4806F55
:101E180003D0E368002B00F0C181134A536823F014
:101E2800F853216943EA01635360236813F0080FEC
:101E380056D06369002B3CD00B4AD2F8943043F05B
:101E48000103C2F89430FFF797F80646064BD3F81B
:101E5800943013F0020F43D1FFF78EF8801B02284D
:101E6800F4D903239DE100BF00100240303100087F
:101E78000000002008000020B74A536823F0F853F8
:101E8800216943EA01635360CFE7B34A136823F437
:101E980080731360FFF770F80646AF4B1B6813F4A6
:101EA800806FC2D0FFF768F8801B0228F5D903239A
:101EB80077E1A94AD2F8943023F00103C2F89430AC
:101EC800FFF75AF80646A44BD3F8943013F0020FE4
:101ED80006D0FFF751F8801B0228F4D9032360E1EC
:101EE800236813F0040F7AD09B4B9B6D13F0805F2F
:101EF8000BD1994B9A6D42F080529A659B6D03F015
:101F080080530193019B012600E00026934B1B6838
:101F180013F4807F26D0A368012B37D0052B3DD042
:101F28008D4BD3F8902022F00102C3F89020D3F80B
:101F3800902022F00402C3F89020A368002B3BD025
:101F4800FFF71AF80746844BD3F8903013F0020FC6
:101F580044D1FFF711F8C01B41F288339842F2D9F7
:101F680003231EE17D4A136843F480731360FFF76F
:101F780003F80746794B1B6813F4807FCBD1FEF733
:101F8800FBFFC01B0228F5D903230AE1724AD2F8E5
:101F9800903043F00103C2F89030CEE76E4BD3F88F
:101FA800902042F00402C3F89020D3F8902042F029
:101FB8000102C3F89020C0E7FEF7DEFF0746664B34
:101FC800D3F8903013F0020F08D0FEF7D5FFC01BEE
:101FD80041F288339842F2D90323E2E0EEB9A36ACA
:101FE800002B00F0DD80022B1DD00C2D00F0E280CC
:101FF800594A136823F080731360FEF7BDFF044647
:10200800554B1B6813F0007F00F0B880FEF7B4FF53
:10201800001B0228F4D90323C3E04F4A936D23F031
:1020280080539365DBE74C4BDB6803F00301E26AFE
:1020380091420FD00C2D00F0B780474B1B6813F06E
:10204800806F40F0B380444B1B6813F0805F2DD045
:102058000123A6E003F07002216B0139B2EB011FE6
:10206800E8D103F4FE42616BB2EB012FE2D103F435
:102078000031A26B073A18BF01229142DAD103F46A
:10208800C001E26B5208013AB1EB425FD2D103F0D2
:10209800C063226C5208013AB3EB426FCAD12E4B8F
:1020A8001B6813F0007F4AD000237AE02A4A13689D
:1020B80023F080731360FEF75FFF0546264B1B680D
:1020C80013F0007F06D0FEF757FF401B0228F5D912
:1020D800032366E0204AD36821491940E36A206B4C
:1020E800013843EA0013606B43EA0023E06B4008C1
:1020F800013843EA4053206C4008013843EA406302
:10210800A06B000943EA40430B43D360136843F0D4
:1021180080731360D36843F08073D360FEF72CFF9D
:1021280004460D4B1B6813F0007F06D1FEF724FF11
:10213800001B0228F5D9032333E0002331E0064BC6
:102148001A6842F080721A60DA6842F08072DA60C7
:10215800FEF712FF04460AE000100240007000403B
:102168008C809DF9FEF708FF001B022820D8124B2F
:102178001B6813F0007FF5D0002312E00E4AD168E7
:102188000E4B0B40D36000230BE001231846704729
:10219800012306E0012304E0012302E0012300E01B
:1021A8000023184603B0F0BD0123FAE70123F8E73E
:1021B8000323F6E70123F4E700100240FCFFEEFEDC
:1021C800002800F0B28070B504465A4B1B6803F033
:1021D80007038B420CD2574A136823F007030B43BB
:1021E8001360136803F007038B4201D0012070BD10
:1021F800236813F0020F0CD0A2684F4B9B6803F0C2
:10220800F0039A4205D94C48836823F0F0031A4337
:1022180082600D46236813F0010F39D06368032BE1
:1022280009D0022B26D063BB434A126812F0020F72
:1022380006D10120DBE7404A126812F0007F76D011
:102248003D498A6822F0030213438B60FEF794FE2F
:102258000646394B9B6803F00C036268B3EB820FA8
:1022680016D0FEF789FE801B41F288339842F0D9D8
:102278000320BCE7304A126812F4003FE0D1012085
:10228800B5E72D4A126812F4806FD9D10120AEE764
:10229800236813F0020F0CD0A268274B9B6803F049
:1022A800F0039A4205D224498B6823F0F0031A43BD
:1022B8008A60204B1B6803F00703AB420CD91D4A08
:1022C800136823F007032B431360136803F0070315
:1022D800AB4201D001208AE7236813F0040F06D02F
:1022E800154A936823F4E063E1680B43936023681D
:1022F80013F0080F07D0104A936823F4605321693C
:1023080043EAC1039360FFF7EFFB0B4B9B68C3F3F2
:1023180003130A4AD35C03F01F03D840084B186024
:10232800084B1868FEF7E6FD61E7012070470120B9
:102338005DE700BF00200240001002403031000875
:102348000000002008000020014B1868704700BFFB
:102358000000002008B5FFF7F7FF054B9B68C3F3A3
:102368000223044AD35C03F01F03D84008BD00BF12
:10237800001002404031000808B5FFF7E5FF054BA3
:102388009B68C3F3C223044AD35C03F01F03D840FD
:1023980008BD00BF0010024040310008F8B55A4B94
:1023A800DB6813F0030F18D0574BDB6803F0030307
:1023B8000268934202D001252846F8BD002A00F0A1
:1023C800A080514BDB68C3F3021301334268934288
:1023D80001D00125F0E700251AE00368022B59D047
:1023E800032B5ED0012B01D001250FE0464A12686D
:1023F80012F0020F61D0444DEA6822F0730244687B
:10240800013C43EA04131343EB600025002DD3D1AC
:102418000F4604463C4A136823F080631360FEF7B6
:10242800ABFD0646384B1B6813F0006F05D0FEF76E
:10243800A3FD801B0228F5D90325002DBCD1002F50
:102448003DD131490B6923F41F3323F44073A0684D
:10245800E2681209520442EA002213430B612A4A35
:10246800136843F080631360FEF786FD0646264B2B
:102478001B6813F0006F05D1FEF77EFD801B022854
:10248800F5D90325002D97D11F4A1369A1690B437C
:10249800136191E71C4A126812F4806FABD10125D1
:1024A800B4E7194A126812F4003FA4D1164A126818
:1024B80012F4802F9FD10125A8E70125A6E7012F57
:1024C8000FD01148026922F0C06222F4FE42A168CE
:1024D80063695B08013B5B0643EA0123134303611D
:1024E800BDE70948026922F4C00222F4FE42A1684D
:1024F80023695B08013B5B0543EA0123134303613E
:10250800ADE7012558E700BF00100240F8B5514B70
:10251800DB6813F0030F18D04E4BDB6803F003039E
:102528000268934202D001252846F8BD002A00F02F
:102538008E80484BDB68C3F3021301334268934231
:1025480001D00125F0E700251AE00368022B59D0D5
:10255800032B5ED0012B01D001250FE03D4A126804
:1025680012F0020F61D03B4DEA6822F07302446812
:10257800013C43EA04131343EB600025002DD3D13B
:102588000F460446334A136823F080531360FEF75E
:10259800F3FC06462F4B1B6813F0005F05D0FEF7CF
:1025A800EBFC801B0228F5D90325002DBCD1002F98
:1025B8003DD128494B6923F41F3323F44073A068A5
:1025C800E2681209520442EA002213434B61214A8D
:1025D800136843F080531360FEF7CEFC06461D4B8C
:1025E8001B6813F0005F05D1FEF7C6FC801B0228AC
:1025F800F5D90325002D97D1164A536961690B4314
:10260800536191E7134A126812F4806FABD1012528
:10261800B4E7104A126812F4003FA4D10D4A1268B8
:1026280012F4802F9FD10125A8E70125A6E70948C4
:10263800426922F0C06222F4FE42A16823695B0865
:10264800013B5B0643EA012313434361BFE70125CE
:102658006AE700BF001002402DE9F04182B004464D
:10266800036813F4006F2FD0436EB3F5800F25D0A5
:1026780008D9B3F5000F10D0B3F5400F40F099809A
:10268800002610E0002B40F0948000210430FFF772
:1026980085FE06463EB1374618E05E4AD36843F4E5
:1026A8008033D36000265B4AD2F8883023F4400395
:1026B800616E0B43C2F88830002707E00021203004
:1026C800FFF724FF0646E5E700273E46236813F494
:1026D800805F15D0A36EB3F1807F7AD06CD9B3F147
:1026E800007F70D0B3F1407F7AD1002E7BD1494A68
:1026F800D2F8883023F04073A16E0B43C2F88830BB
:10270800236813F4003F00F08E80424B9B6D13F05A
:10271800805F6AD13F4B9A6D42F080529A659B6DFB
:1027280003F080530193019B4FF001083A4A136864
:1027380043F480731360FEF71FFC0546364B1B6895
:1027480013F4807F05D1FEF717FC401B0228F5D94A
:102758000326002E62D12F4BD3F8903013F4407328
:1027680016D0D4F884209A4212D02A4AD2F890304F
:1027780023F44073D2F8901041F48031C2F89010DD
:10278800D2F8901021F48031C2F89010C2F890303D
:1027980013F0010F2CD1002E40F043811D4AD2F8CE
:1027A800903023F44073D4F884100B43C2F890306F
:1027B80035E001273E4689E793B90021201DFFF740
:1027C800EDFD064691E7134AD36843F48033D3609E
:1027D8008BE7002104F12000FFF798FE064684E706
:1027E80001273E468CE737468AE74FF000089DE709
:1027F800FEF7C2FB0546074BD3F8903013F0020FE3
:10280800C9D1FEF7B9FB401B41F288339842F2D98F
:102818000326C0E700100240007000403746B8F1B8
:10282800000F40F00081236813F0010F08D09D4A83
:10283800D2F8883023F00303A16B0B43C2F8883029
:10284800236813F0020F08D0964AD2F8883023F094
:102858000C03E16B0B43C2F88830236813F0040FB4
:1028680008D0904AD2F8883023F03003216C0B430B
:10287800C2F88830236813F0080F08D0894AD2F8C4
:10288800883023F0C003616C0B43C2F8883023689A
:1028980013F0100F08D0834AD2F8883023F440731D
:1028A800A16C0B43C2F88830236813F0200F08D0BE
:1028B8007C4AD2F8883023F44063E16C0B43C2F8B9
:1028C8008830236813F4007F08D0764AD2F888301D
:1028D80023F44023E16D0B43C2F88830236813F4D6
:1028E800806F08D06F4AD2F8883023F44013216EE5
:1028F8000B43C2F88830236813F0400F08D0694AA8
:10290800D2F8883023F44053216D0B43C2F8883045
:10291800236813F0800F08D0624AD2F8883023F475
:102928004043616D0B43C2F88830236813F4807FFD
:1029380008D05C4AD2F8883023F44033A16D0B43A9
:10294800C2F88830236813F4005F0FD0554AD2F8D4
:10295800883023F04063E16E0B43C2F88830E36EA1
:10296800B3F1006F65D0B3F1806F67D0236813F4BB
:10297800002F0FD04B4AD2F8883023F04063216FE4
:102988000B43C2F88830236FB3F1006F5ED0B3F108
:10299800806F60D0236813F4802F0FD0414AD2F89B
:1029A800883023F04063616F0B43C2F88830636F4F
:1029B800B3F1006F57D0B3F1806F59D0236813F487
:1029C800804F0FD0374AD2F8883023F04053A16F98
:1029D8000B43C2F88830A36FB3F1805F50D0B3F1D6
:1029E800005F55D0236813F4004F08D02D4AD2F861
:1029F800883023F08043E16F0B43C2F888302368A6
:102A080013F4803F09D0274AD2F8883023F00043D6
:102A1800D4F880100B43C2F88830384602B0BDE8BD
:102A2800F0813746FBE61F4A936D23F08053936588
:102A3800F9E6D36843F48013D36097E70121201D9A
:102A4800FFF7ACFC002891D007468FE7D36843F422
:102A58008013D3609EE70121201DFFF79FFC00280B
:102A680098D0074696E7D36843F48013D360A5E768
:102A78000121201DFFF792FC00289FD007469DE703
:102A88000221201DFFF78AFC0028ABD00746A9E7E2
:102A9800022104F12000FFF739FD0028A2D00746E3
:102AA800A0E700BF001002402DE9D848044601689D
:102AB80083680269134342691343C2691343086870
:102AC8009B4A024013430B602268536823F4405327
:102AD800E1680B435360A1692268964B9A4201D082
:102AE800236A1943936823F430630B439360236884
:102AF800914A934227D0914A934238D0904A9342C0
:102B08004ED0904A934261D08F4A934274D0894AFA
:102B1800934200F08A80102286498B4200F0AA80F6
:102B2800E369B3F5004F00F0D880082A00F2458128
:102B3800DFE812F015012C01130143012F014301B5
:102B480043014301320102F55842D2F8882002F0CD
:102B58000302032A09D8DFE802F0020481060122F1
:102B6800DAE70422D8E70822D6E71022D4E702F5EC
:102B7800E632D2F8882002F00C020C2A0ED8DFE8E0
:102B880002F0070D0D0D090D0D0D6F0D0D0D0B004C
:102B98000022C1E70422BFE70822BDE71022BBE7F5
:102BA80002F5E432D2F8882002F03002102A09D067
:102BB80005D9202A56D0302A06D10822ACE71AB9FE
:102BC8000022A9E70422A7E71022A5E702F5E232CE
:102BD800D2F8882002F0C002402A09D005D9802AFC
:102BE80042D0C02A06D1082296E71AB9002293E7F4
:102BF800042291E710228FE702F5E032D2F888200C
:102C080002F44072B2F5807F0BD007D9B2F5007F8D
:102C18002CD0B2F5407F06D108227DE71AB90022F0
:102C28007AE7042278E7102276E702F5C832D2F86C
:102C3800882002F44062B2F5806F0BD007D9B2F554
:102C4800006F15D0B2F5406F06D1082264E71AB9B3
:102C5800002261E704225FE710225DE702225BE7BA
:102C6800022259E7022257E7022255E7022253E7D8
:102C7800022251E7082A00F29280DFE802F0089069
:102C880010900D90909005004FF4004008E0FFF779
:102C980061FB28B9002074E0FEF726FFF9E72B480E
:102CA800626802EB420383427BD8B0EB023F7AD8DA
:102CB8000023070E0602500816EB000B47F1000C24
:102CC80058466146FDF77CFAA0F54072204B9A42BF
:102CD8006BD82368D860002053E0082A67D8DFE85B
:102CE80002F007210566246666663900174803E086
:102CF800FFF730FB00285CD06268530803EB400004
:102D0800B0FBF2F0A0F110024FF6EF739A4252D8DE
:102D180083B223F00F03C0F3420018432368D8603E
:102D280000202EE0FFF728FBE4E7FEF7DDFEE1E7F1
:102D3800F369FFEF00800040003801400044004084
:102D480000480040004C0040005000400024F400BF
:102D5800FFFC0F004FF40040CEE71B4802E0FFF7EE
:102D6800F9FA60B3636800EB5300B0FBF3F0A0F12D
:102D780010024FF6EF739A4223D8236880B2D860C6
:102D8800002000236366A366BDE8D888FFF7F4FA3D
:102D9800E7E7FEF7A9FEE4E74FF40040E2E7012089
:102DA800EFE70120EDE70120EBE70120E9E701204B
:102DB800E7E70020E5E70120E3E70120E1E700205D
:102DC800DFE70120DDE700BF0024F400436A13F0C9
:102DD800010F06D00268536823F40033816A0B435D
:102DE8005360436A13F0020F06D00268536823F455
:102DF8008033C16A0B435360436A13F0040F06D053
:102E08000268536823F48023016B0B435360436AC1
:102E180013F0080F06D00268536823F40043416B8F
:102E28000B435360436A13F0100F06D0026893688F
:102E380023F48053816B0B439360436A13F0200F94
:102E480006D00268936823F40053C16B0B43936068
:102E5800436A13F0400F0AD00268536823F48013C2
:102E6800016C0B435360036CB3F5801F0BD0436AAE
:102E780013F0800F06D00268536823F40023816C96
:102E88000B43536070470268536823F4C003416CD6
:102E98000B435360EBE72DE9F04104460F46164615
:102EA8009846069D2368DB6937EA03030CBF0123B4
:102EB8000023B34251D1B5F1FF3FF3D0FEF75CF8E0
:102EC800A0EB0800A8422BD855B323681A6812F063
:102ED800040FE7D0DA6912F4006FE3D04FF4006210
:102EE8001A62226852E8003F23F4D07342E80031A6
:102EF8000029F6D1226802F1080353E8003F23F0C5
:102F08000103083242E800310029F3D12023A367E6
:102F1800E367C4F88030002384F8743003201DE090
:102F2800226852E8003F23F4D07342E800310029B8
:102F3800F6D1226802F1080353E8003F23F00103A9
:102F4800083242E800310029F3D12023A367E36760
:102F5800002384F87430032000E00020BDE8F081ED
:102F680030B583B004460023C0F88030FEF704F87B
:102F7800054623681B6813F0080F0DD123681B68EA
:102F880013F0040F16D12023A367E36700202066FF
:102F980084F8740003B030BD6FF07E43009303469D
:102FA80000224FF400112046FFF775FF0028E5D0F6
:102FB8000320EFE76FF07E4300932B4600224FF487
:102FC80080012046FFF767FF0028DCD00320E1E7F7
:102FD80068B310B50446836F03B32423A36722683C
:102FE800136823F0010313602046FFF75DFD0128F5
:102FF80013D0636ABBB92268536823F490435360C3
:103008002268936823F02A0393602268136843F0C8
:10301800010313602046FFF7A3FF10BD80F874304A
:10302800FDF70EFFD9E72046FFF7D0FEE3E70120C2
:1030380070470000DFF834D0FDF752FF0C480D4907
:103048000D4A002302E0D458C4500433C4188C42FB
:10305800F9D30A4A0A4C002301E013600432A24261
:10306800FBD300F011F8FDF781FEFEE70080012098
:10307800000000201000002060310008100000202F
:1030880028010020FEE7000070B50D4E0D4CA41B72
:10309800A4100025A54209D10B4E0C4C00F020F8D5
:1030A800A41BA4100025A54205D170BD56F82530F3
:1030B80098470135EEE756F8253098470135F2E78D
:1030C80050310008503100085031000854310008D0
:1030D80002440346934200D1704703F8011BF9E705
:1030E800F8B500BFF8BC08BC9E467047F8B500BFED
:0830F800F8BC08BC9E467047BD
:10310000A0860100400D0300801A060000350C0067
:1031100040420F0080841E0000093D0000127A002A
:103120000024F40000366E010048E801006CDC0267
:103130000000000000000000010203040607080967
:0831400000000000010203047D
:08314800B0D0FF7F0100000080
:08315000AD01000800000000C1
:083158008901000800000000DD
:1031600000093D0001000000100000000000000008
:040000050800303D82
:00000001FF
